{
  "abi": [
    {
      "inputs": [
        {
          "internalType": "address",
          "name": "minter",
          "type": "address"
        },
        {
          "internalType": "uint256",
          "name": "quantity",
          "type": "uint256"
        }
      ],
      "name": "mint",
      "outputs": [],
      "stateMutability": "nonpayable",
      "type": "function"
    }
  ],
  "bytecode": {
    "object": "0x608060405234801561001057600080fd5b50610106806100206000396000f3fe6080604052348015600f57600080fd5b506004361060285760003560e01c806340c10f1914602d575b600080fd5b603c6038366004609a565b603e565b005b60405163140e25ad60e31b8152600481018290526001600160a01b0383169063a0712d6890602401600060405180830381600087803b158015607f57600080fd5b505af11580156092573d6000803e3d6000fd5b505050505050565b6000806040838503121560ac57600080fd5b82356001600160a01b038116811460c257600080fd5b94602093909301359350505056fea2646970667358221220543bff95456915ef59e865592cb785ce8ddd188e1c8c33c549850909f8739fa564736f6c634300080f0033",
    "linkReferences": {}
  },
  "methodIdentifiers": {
    "mint(address,uint256)": "40c10f19"
  },
  "id": 3
}