{
  "abi": [
    {
      "anonymous": false,
      "inputs": [
        {
          "indexed": false,
          "internalType": "address",
          "name": "proxy",
          "type": "address"
        }
      ],
      "name": "MinimalProxyCreated",
      "type": "event"
    },
    {
      "inputs": [
        {
          "internalType": "address",
          "name": "implementation",
          "type": "address"
        }
      ],
      "name": "create",
      "outputs": [
        {
          "internalType": "address",
          "name": "instance",
          "type": "address"
        }
      ],
      "stateMutability": "nonpayable",
      "type": "function"
    }
  ],
  "bytecode": {
    "object": "0x608060405234801561001057600080fd5b506101a2806100206000396000f3fe608060405234801561001057600080fd5b506004361061002b5760003560e01c80639ed9331814610030575b600080fd5b61004361003e36600461013c565b61005f565b6040516001600160a01b03909116815260200160405180910390f35b6000604051733d602d80600a3d3981f3363d3d373d3d3d363d7360601b81528260601b60148201526e5af43d82803e903d91602b57fd5bf360881b60288201526037816000f09150506001600160a01b0381166100fb5760405162461bcd60e51b8152602060048201526016602482015275115490cc4c4d8dce8818dc99585d194819985a5b195960521b604482015260640160405180910390fd5b6040516001600160a01b03821681527f16f1e151dcf4eb1663400df93379828c17dea844757ee03e3038178d0038c3a79060200160405180910390a1919050565b60006020828403121561014e57600080fd5b81356001600160a01b038116811461016557600080fd5b939250505056fea264697066735822122000f74024fec9d7179669fe6fa6bb0d3830e1c981b91d5fe029796001dc9ba2ab64736f6c634300080f0033",
    "linkReferences": {}
  },
  "methodIdentifiers": {
    "create(address)": "9ed93318"
  },
  "id": 1
}