{
  "abi": [
    {
      "inputs": [
        {
          "internalType": "uint256",
          "name": "quantity",
          "type": "uint256"
        }
      ],
      "name": "mint",
      "outputs": [],
      "stateMutability": "nonpayable",
      "type": "function"
    },
    {
      "inputs": [],
      "name": "totalQuantity",
      "outputs": [
        {
          "internalType": "uint256",
          "name": "",
          "type": "uint256"
        }
      ],
      "stateMutability": "view",
      "type": "function"
    }
  ],
  "bytecode": {
    "object": "0x608060405234801561001057600080fd5b5060f68061001f6000396000f3fe6080604052348015600f57600080fd5b506004361060325760003560e01c8063a0712d68146037578063c616f412146048575b600080fd5b604660423660046083565b6062565b005b605060005481565b60405190815260200160405180910390f35b606981606c565b50565b80600080828254607b9190609b565b909155505050565b600060208284031215609457600080fd5b5035919050565b6000821982111560bb57634e487b7160e01b600052601160045260246000fd5b50019056fea264697066735822122086617246d94afe4a3ff1718705e8b603d8a899a847622bc096c767f1a3c2ad7164736f6c634300080f0033",
    "linkReferences": {}
  },
  "methodIdentifiers": {
    "mint(uint256)": "a0712d68",
    "totalQuantity()": "c616f412"
  },
  "id": 2
}