{
  "abi": [
    {
      "inputs": [
        {
          "internalType": "address",
          "name": "_implementation",
          "type": "address"
        }
      ],
      "stateMutability": "nonpayable",
      "type": "constructor"
    },
    {
      "stateMutability": "payable",
      "type": "fallback"
    },
    {
      "inputs": [],
      "name": "implementation",
      "outputs": [
        {
          "internalType": "address",
          "name": "",
          "type": "address"
        }
      ],
      "stateMutability": "view",
      "type": "function"
    },
    {
      "inputs": [
        {
          "internalType": "bytes4",
          "name": "",
          "type": "bytes4"
        }
      ],
      "name": "pointers",
      "outputs": [
        {
          "internalType": "address",
          "name": "",
          "type": "address"
        }
      ],
      "stateMutability": "view",
      "type": "function"
    },
    {
      "stateMutability": "payable",
      "type": "receive"
    }
  ],
  "bytecode": {
    "object": "0x60a060405234801561001057600080fd5b5060405161026138038061026183398101604081905261002f91610040565b6001600160a01b0316608052610070565b60006020828403121561005257600080fd5b81516001600160a01b038116811461006957600080fd5b9392505050565b6080516101d0610091600039600081816056015261012501526101d06000f3fe60806040526004361061002d5760003560e01c80635c60da1b14610044578063b5d7ccc3146100945761003c565b3661003c5761003a6100ca565b005b61003a6100ca565b34801561005057600080fd5b506100787f000000000000000000000000000000000000000000000000000000000000000081565b6040516001600160a01b03909116815260200160405180910390f35b3480156100a057600080fd5b506100786100af366004610169565b6000602081905290815260409020546001600160a01b031681565b600080356001600160e01b0319168152602081905260409020546001600160a01b03161561012057600080356001600160e01b03191681526020819052604090205461011e906001600160a01b0316610145565b565b61011e7f00000000000000000000000000000000000000000000000000000000000000005b3660008037600080366000845af43d6000803e808015610164573d6000f35b3d6000fd5b60006020828403121561017b57600080fd5b81356001600160e01b03198116811461019357600080fd5b939250505056fea2646970667358221220408da78995a09580a706c985fbc62348644b6b376f847c57f7d6a68f37a0d1ce64736f6c634300080f0033",
    "linkReferences": {}
  },
  "methodIdentifiers": {
    "implementation()": "5c60da1b",
    "pointers(bytes4)": "b5d7ccc3"
  },
  "id": 4
}