{
  "abi": [
    {
      "inputs": [],
      "name": "testMintUsingMinimalProxyAndModule",
      "outputs": [],
      "stateMutability": "nonpayable",
      "type": "function"
    },
    {
      "inputs": [],
      "name": "testMintUsingRouterProxyAndImplementation",
      "outputs": [],
      "stateMutability": "nonpayable",
      "type": "function"
    }
  ],
  "bytecode": {
    "object": "0x608060405234801561001057600080fd5b50610975806100206000396000f3fe608060405234801561001057600080fd5b50600436106100365760003560e01c80630a14c5b01461003b578063e41c050f14610045575b600080fd5b61004361004d565b005b6100436101b0565b600060405161005b9061027d565b604051809103906000f080158015610077573d6000803e3d6000fd5b50905060006040516100889061028a565b604051809103906000f0801580156100a4573d6000803e3d6000fd5b506040516313db266360e31b81526001600160a01b038083166004830152919250600091841690639ed93318906024016020604051808303816000875af11580156100f3573d6000803e3d6000fd5b505050506040513d601f19601f8201168201806040525081019061011791906102b1565b9050600060405161012790610297565b604051809103906000f080158015610143573d6000803e3d6000fd5b506040516340c10f1960e01b81526001600160a01b03848116600483015260016024830152919250908216906340c10f1990604401600060405180830381600087803b15801561019257600080fd5b505af11580156101a6573d6000803e3d6000fd5b5050505050505050565b60006040516101be9061028a565b604051809103906000f0801580156101da573d6000803e3d6000fd5b5090506000816040516101ec906102a4565b6001600160a01b039091168152602001604051809103906000f080158015610218573d6000803e3d6000fd5b5060405163140e25ad60e31b81526001600482015290915081906001600160a01b0382169063a0712d6890602401600060405180830381600087803b15801561026057600080fd5b505af1158015610274573d6000803e3d6000fd5b50505050505050565b6101c2806102e283390190565b610115806104a483390190565b610126806105b983390190565b610261806106df83390190565b6000602082840312156102c357600080fd5b81516001600160a01b03811681146102da57600080fd5b939250505056fe608060405234801561001057600080fd5b506101a2806100206000396000f3fe608060405234801561001057600080fd5b506004361061002b5760003560e01c80639ed9331814610030575b600080fd5b61004361003e36600461013c565b61005f565b6040516001600160a01b03909116815260200160405180910390f35b6000604051733d602d80600a3d3981f3363d3d373d3d3d363d7360601b81528260601b60148201526e5af43d82803e903d91602b57fd5bf360881b60288201526037816000f09150506001600160a01b0381166100fb5760405162461bcd60e51b8152602060048201526016602482015275115490cc4c4d8dce8818dc99585d194819985a5b195960521b604482015260640160405180910390fd5b6040516001600160a01b03821681527f16f1e151dcf4eb1663400df93379828c17dea844757ee03e3038178d0038c3a79060200160405180910390a1919050565b60006020828403121561014e57600080fd5b81356001600160a01b038116811461016557600080fd5b939250505056fea26469706673582212209824b13aced93c5f5634a1bc9f472f512f673b3d59b9ceab29bc2d88d6db6ac664736f6c634300080f0033608060405234801561001057600080fd5b5060f68061001f6000396000f3fe6080604052348015600f57600080fd5b506004361060325760003560e01c8063a0712d68146037578063c616f412146048575b600080fd5b604660423660046083565b6062565b005b605060005481565b60405190815260200160405180910390f35b606981606c565b50565b80600080828254607b9190609b565b909155505050565b600060208284031215609457600080fd5b5035919050565b6000821982111560bb57634e487b7160e01b600052601160045260246000fd5b50019056fea26469706673582212209ad162b655acfbc4e6458c67c60ddb225bf19e2adcc51afed65a64ac5b07a55464736f6c634300080f0033608060405234801561001057600080fd5b50610106806100206000396000f3fe6080604052348015600f57600080fd5b506004361060285760003560e01c806340c10f1914602d575b600080fd5b603c6038366004609a565b603e565b005b60405163140e25ad60e31b8152600481018290526001600160a01b0383169063a0712d6890602401600060405180830381600087803b158015607f57600080fd5b505af11580156092573d6000803e3d6000fd5b505050505050565b6000806040838503121560ac57600080fd5b82356001600160a01b038116811460c257600080fd5b94602093909301359350505056fea264697066735822122003975059d3ca5664c8d4098f6fcd39dc2e9fa731e67c325df60c6f99b0ee81ca64736f6c634300080f003360a060405234801561001057600080fd5b5060405161026138038061026183398101604081905261002f91610040565b6001600160a01b0316608052610070565b60006020828403121561005257600080fd5b81516001600160a01b038116811461006957600080fd5b9392505050565b6080516101d0610091600039600081816056015261012501526101d06000f3fe60806040526004361061002d5760003560e01c80635c60da1b14610044578063b5d7ccc3146100945761003c565b3661003c5761003a6100ca565b005b61003a6100ca565b34801561005057600080fd5b506100787f000000000000000000000000000000000000000000000000000000000000000081565b6040516001600160a01b03909116815260200160405180910390f35b3480156100a057600080fd5b506100786100af366004610169565b6000602081905290815260409020546001600160a01b031681565b600080356001600160e01b0319168152602081905260409020546001600160a01b03161561012057600080356001600160e01b03191681526020819052604090205461011e906001600160a01b0316610145565b565b61011e7f00000000000000000000000000000000000000000000000000000000000000005b3660008037600080366000845af43d6000803e808015610164573d6000f35b3d6000fd5b60006020828403121561017b57600080fd5b81356001600160e01b03198116811461019357600080fd5b939250505056fea26469706673582212200bd13fe9fcc6ed44d3d2b576ccfb61c7ffb82a9461dddc32433d253976544a4164736f6c634300080f0033a264697066735822122005d5ad1eae3581d98d10433a6d1e618fe0d9afee226d547f7c68281ea095929e64736f6c634300080f0033",
    "linkReferences": {}
  },
  "methodIdentifiers": {
    "testMintUsingMinimalProxyAndModule()": "0a14c5b0",
    "testMintUsingRouterProxyAndImplementation()": "e41c050f"
  },
  "id": 6
}